:040000008A11FC2F36
:1008E80001308A118424080001308A117C24080010
:1008F80083120313A000810120088A1184240800B0
:10090800FD00D2308312031301020318902C7D08D6
:100918008A1100278A11852C81010800FD008312A5
:10092800031381011E308312031301020318080008
:100938007D088A1100278A11962C83120313A201BD
:10094800023022020318080087178A1178248A11B6
:1009580083120313871307178A1178248A118312C5
:100968000313071387168A1178248A118312031335
:10097800871207168A1178248A1183120313071223
:1009880087158A1178248A1183120313871101307D
:10099800A1002108A207A42C831203133708F5002D
:1009A8000310750C0139F6007608F0003708F700D7
:1009B80002300310F70CFF3E031DDD2C77080139C8
:1009C800F8007808F1003708F90003300310F90C33
:1009D800FF3E031DEA2C79080139FA007A08F20073
:1009E8003708FB0004300310FB0CFF3E031DF72CF7
:1009F8007B080139FC007C08F300370801398A11AB
:100A08003C25080083120313871107128712071366
:100A1800871387100710831203179E019F018316FF
:100A280003130F138F120F12FF309500FF3083123C
:100A38000317950043308316031381008111871330
:100A480007138712071287110710871005148514DA
:100A580005168516061686160617861783120313BB
:100A680087110712871207138713871007100800CA
:100A7800F400741C432D831203138717462D831229
:100A8800031387130000831203138713701C502D60
:100A9800831203130717532D831203130713000040
:100AA800831203130713711C5D2D8312031387161A
:100AB800602D831203138712000083120313871219
:100AC800721C6A2D8312031307166D2D83120313EC
:100AD80007120000831203130712731C772D831269
:100AE800031387157A2D83120313871100008312CD
:100AF800031387110800831203138518902D83129E
:100B0800031387178A1178248A1183120313871312
:100B18008A1178248A11832D831203130518A12DB5
:100B28008312031307178A1178248A118312031377
:100B380007138A1178248A11942D83120313051A36
:100B4800B22D8312031387168A1178248A1183120F
:100B5800031387128A1178248A11A52D831203138F
:100B6800851A08008312031307168A1178248A113C
:100B78008312031307128A1178248A11B62D83125F
:100B88000313A701103027020318080027080139AA
:100B9800A0002008A3002708A0000310200C01399A
:100BA800A1002108A4002708A00002300310A00C0F
:100BB800FF3E031DDA2D20080139A1002108A500F8
:100BC8002708A00003300310A00CFF3E031DE72DEB
:100BD80020080139A1002108A6002408A000200847
:100BE800F0002508A1002108F1002608A20022082B
:100BF800F200F30123088A113C258A118A11742412
:100C08008A11013083120313A0002008A707C62DFC
:100C1800831203130518851C152E051E152E851A1B
:100C2800352E0310851C0314003003180130F00022
:100C38000310051E0314003003180130F1000310DF
:100C4800851E0314003003180130F200F301F30A83
:100C58000310051C03140030031801308A113C25C9
:100C68000800031083120313861E031400300318B0
:100C78000130F0000310061F031400300318013080
:100C8800F1000310861F0314003003180130F2002E
:100C9800F3010310061E03140030031801308A11F3
:100CA8003C250800031083120313861F0314003029
:100CB80003180130A00003300310A00DFF3E031DF0
:100CC800602E0310061F0314003003180130A10022
:100CD80002300310A10DFF3E031D6D2E0310861E6A
:100CE8000314003003180130A20001300310A20DD4
:100CF800FF3E031D7A2E0310061E0314003003184E
:100D08000130220421042004A3002308A4000714AE
:100D1800A501240825020318A22E87178A11742416
:100D28008A118312031387138A1174248A110130DC
:100D380083120313A0002008A5078D2E07100800B2
:100D48008A1106258A118A11D7278A11BF2E8A117E
:100D5800C3258A11BF2EB601203036020318BF2ED4
:100D680007308A117C248A11013083120313B100E1
:100D78003108B607B02E031083120313861F03141D
:100D8800003003180130B10003300310B10DFF3EED
:100D9800031DC92E0310061F031400300318013069
:100DA800B20002300310B20DFF3E031DD62E031011
:100DB800861E0314003003180130B30001300310FD
:100DC800B30DFF3E031DE32E0310061E031400306F
:100DD80003180130330432043104B4003408B50078
:100DE80035080319AB2E8312031335030319AF2EED
:100DF8008A110E278A11BF2EFF0007308A007F084C
:100E08008207052F8A11FB2F8A11EF2F8A11D02C08
:100E18008A110C2E83120313A9018A11D0248A1176
:100E280083120313A701051A1E2F0714051E1A2F74
:100E38000710572F851A252F8714851E212F8710F5
:100E4800572F05183D2F0130A6002608B707370889
:100E58001F39A6002608B700831203130518382F78
:100E68008A11D0248A11302F05308A1192248A11D0
:100E7800572F8518552F0430A6002608B7073708BE
:100E88001F39A6002608B700831203138518502FB0
:100E98008A11D0248A11482F05308A1192248A1188
:100EA800572FA701A70A831203132708031D5F2FD3
:100EB8008101A901682FD2300102031C682F81012A
:100EC8000130A6002608A90737080319112F0A3090
:100ED8002902031C112FAC0104302C020318852FA2
:100EE80005308A117C248A118A1178248A110130EC
:100EF80083120313A6002608AC0704302C02031C37
:100F0800742FAA01A801AB01D32F051E8D2F851AB6
:100F1800A92FAC0104302C020318A32F03308A1127
:100F28007C248A118A1178248A11013083120313D0
:100F3800A6002608AC0704302C02031C922F051AC1
:100F4800851EA32FAB01AB0AB701D33001020318EA
:100F5800B02F2B080319892F81018A11D0248A11F7
:100F6800013083120313A6002608AA0778302A0640
:100F7800031DC32FAA010130A6002608A8071E30AA
:100F88002806031DD32F0130B7023708031DD32FBE
:100F98008A1156268A1183120313AB01AB0A2B0858
:100FA800031D0800A92F8A11A1248A118A117F25FF
:100FB8008A1183120313A4010430240203180800C1
:100FC80007308A117C248A11013083120313A3008D
:100FD8002308A407E02FF001F00AF101F10AF20159
:100FE800F20AF301F30A01308A113C2508000800CF
:080FF800B70183018A11A42E48
:02400E00D4F7E5
:00000001FF
